:020000040800F2
:10000000A00400209D010008F722000881190008C3
:10001000F5220008B10800086D2600080000000065
:10002000000000000000000000000000692300083C
:10003000B308000800000000F92200086B23000844
:10004000B7010008B7010008B7010008B7010008B0
:10005000B7010008B7010008B7010008B7010008A0
:10006000B7010008B7010008B7010008B701000890
:10007000B7010008B7010008B7010008B701000880
:10008000B7010008B70100087D070008B7010008A4
:10009000B7010008B7010008B7010008B701000860
:1000A000B7010008B7010008B7010008B701000850
:1000B000B7010008B7010008B7010008B701000840
:1000C000B7010008B7010008B7010008B701000830
:1000D000B701000861260008B7010008B701000851
:1000E000B7010008B7010008B7010008B701000810
:1000F000B7010008B7010008B7010008B701000800
:10010000B7010008B7010008B7010008B7010008EF
:10011000B7010008B7010008B7010008B7010008DF
:10012000B7010008B7010008B7010008B7010008CF
:10013000B7010008B7010008B7010008B7010008BF
:10014000B7010008B7010008B7010008B7010008AF
:10015000B7010008B7010008B7010008B70100089F
:10016000B7010008B7010008B7010008B70100088F
:10017000B7010008B7010008B7010008000000003F
:10018000B7010008B7010008DFF80CD000F0E4FA6E
:1001900000480047AD260008A0040020064880471C
:1001A00006480047FEE7FEE7FEE7FEE7FEE7FEE75C
:1001B000FEE7FEE7FEE7FEE7F523000889010008F9
:1001C0002DE9F05F0546002092469B46884606468C
:1001D000814640241BE0284641464746224600F01F
:1001E00005FA53465A46C01A914110D31146184693
:1001F000224600F0ECF92D1A67EB01084F46224623
:100200000120002100F0E3F917EB00094E41201E08
:10021000A4F10104DFDC484631462A464346BDE8E6
:10022000F09FD2B201E000F8012B491EFBD27047CB
:100230000022F6E710B513460A4604461946FFF7B2
:10024000F0FF204610BD2DE9FE4F804681EA0300F5
:10025000C00F0C46009021F0004123F00045B8EBA0
:100260000200A94105D24046214690461C460B4655
:10027000024623F00040104347D0270DC7F30A0081
:10028000C3F30A510290401A019040286BDAC3F37D
:10029000130040F4801B0098924620B10023D2EB5B
:1002A000030A63EB0B0B01985946C0F1400250461C
:1002B00000F08DF906460D4650465946019A00F069
:1002C000A5F910EB08006141002487EA115284EA85
:1002D000E7731A4340D0009A62B3019A012A4FEAA9
:1002E000075215DC001B61EB02014FF0004202EAED
:1002F0000752CDE90042001C41F5801132462B46E1
:1003000000F0DCF903B0BDE8F08F40462146F9E784
:10031000001B61EB0201001C41F5801300185B41DA
:100320002018A2F5001747EB030140EAD570B61973
:100330006D4111E06D084FEA360645EAC0754FEA97
:100340000752001B61EB0201001C41F580114908B6
:100350004FEA30000019514132462B4603B0BDE848
:10036000F04F00F09CB90098012240000023D0EB30
:10037000020263EBE073009821464FEAE074B8EBA9
:10038000000061EB0401E9E783F000435BE781F0E3
:10039000004158E72DE9FE4F81EA030404F00044D0
:1003A00021F0004100944FF0000B23F0004350EA8D
:1003B00001045ED052EA03045BD0C3F30A54C1F3D4
:1003C0000A552C44A4F2F3340194A0FB0254C1F367
:1003D000130141F48011C3F3130343F4801301FBB1
:1003E000024400FB034E840A970A44EA815447EA18
:1003F0008357A4FB076802958D0A05FB07854FEA22
:10040000932C04FB0C542705029D4FEA065847EA3B
:100410001637B5EB08056EEB070C870E920E47EA10
:10042000811742EA8312A7FB0201B6EB0B0164EBD2
:1004300000042B0D43EA0C335E1844EB1C50DA46E3
:100440005146E7FB0201C5F313044FEA0B3343EABD
:1004500014534FEA0432019C43EA0603A4F10C044E
:100460000294009CCDE900B400F028F903B0BDE887
:10047000F08F00200146F9E72DE9F04D81EA0304F1
:1004800004F0004B21F0004514464FF0000A23F021
:10049000004150EA050220D054EA01021DD0C5F304
:1004A0000A570246C5F31303C1F31300C1F30A56FA
:1004B00040F4801543F48013A7EB0608101BD646C2
:1004C00008F2FD3873EB050002D308F1010801E0E2
:1004D00092185B41B8F1000F03DA00200146BDE835
:1004E000F08D00204FF48011064684460EE0171B65
:1004F00073EB050705D3121B63EB050306434CEAB8
:10050000010C49084FEA300092185B4150EA01079C
:10051000EDD152EA030012D082EA040083EA050119
:10052000084305D0101BAB4106D20122002306E090
:1005300000224FF0004302E06FF0010253101AEB6B
:1005400006004CEB085110EB0A0041EB0B01BDE833
:10055000F04D00F0A4B80EB540F2334102910021F5
:10056000CDE900110A460B4600F0A8F803B000BD23
:1005700000F0004230F000400AD0C10D01F560717A
:10058000C0F3160042EA0151C20840071143704708
:1005900000200146704701F0004330B421F00041D3
:1005A00050EA010206D00A0DA2F56072C1F31301F0
:1005B000002A02DC30BC00207047440F44EAC1042A
:1005C000C100E01830BC00EBC25000F031B8202A66
:1005D00004DB203A00FA02F1002070479140C2F19A
:1005E000200320FA03F3194390407047202A04DBCC
:1005F000203A21FA02F00021704721FA02F3D0409C
:10060000C2F120029140084319467047202A06DBB8
:10061000CB17203A41FA02F043EAE07306E041FAD0
:1006200002F3D040C2F120029140084319467047BE
:100630000029A8BF7047401C490008BF20F00100F6
:10064000704710B4B0FA80FC00FA0CF050EA0104D4
:1006500004BF10BC704749B1CCF1200421FA04F466
:1006600011FA0CF118BF012121430843A3EB0C013F
:10067000CB1D4FEA00614FEA102042BF002010BCA2
:10068000704700EBC35010440029A4BF10BC704752
:10069000401C490008BF20F0010010BC704710B595
:1006A000141E73F1000408DA401C41F10001921895
:1006B0005B411A4301D120F0010010BD2DE9F04D3E
:1006C00092469B4611B1B1FA81F202E0B0FA80F293
:1006D00020329046FFF77BFF04460F4640EA0A00AF
:1006E00041EA0B0153465A46084313D0114653EAD8
:1006F000010019D0C8F140025046FFF777FF0546C8
:100700000E46504659464246FFF761FF084305D062
:10071000012004E020463946BDE8F08D0020054365
:1007200046EAE0762C4337430A986305E40AA0EBD7
:1007300008000022FD0A44EA47540A3002D500208E
:100740000146E9E7010510196941DDE9084500198D
:100750006941BDE8F04DA2E7064C074D06E0E068B0
:1007600040F0010394E8070098471034AC42F6D3F8
:10077000FFF70EFD2C4F00084C4F0008014800F019
:1007800031BA000018000020464910B54A6822F42A
:1007900040324A604A6843681A434A6001684A68BE
:1007A00022F480724A6001684A68036942EA0322BF
:1007B0004A6001684A6822F040724A6001684A68EB
:1007C00083681A434A6001688A6822F400628A607A
:1007D00001688A68C3681A438A60816A6FF0706230
:1007E000D14201688A6822F070628A6001688A6872
:1007F0000CD0836A1A438A6001688A6822F04052EA
:100800008A6001688A68C36A1A4301E022F0405294
:100810008A6001688A6822F002028A6001688A6838
:10082000037E42EA43028A6090F8201000290168A2
:100830004A680FD042F400624A6001684A6822F4B4
:1008400060424A6001684A68174C436A04EB4333CC
:100850001A4301E022F400624A600168CA6A22F485
:100860007002CA620168CA6A838B104C04EB03539E
:100870001A43CA6201688A6822F400728A600168B9
:100880008A6890F8303042EA43228A6001688A68B8
:1008900022F480628A6001688A68406942EA8020A6
:1008A000886010BD0023014000E0FFFF0000F0FF62
:1008B000FEE770477047704778B50024009490F8C1
:1008C0003C20012A19D0012280F83C200A68072325
:1008D0000568092A13D9EE680A3A02EB42029340EE
:1008E0009E43EE600B788A680A3B03EB43039A4011
:1008F0000368DD682A43DA6010E0022078BD2E69C3
:1009000002EB420293409E432E610B788A6803EB10
:1009100043039A4003681D692A431A614A681F23EA
:10092000072A13D205686E6B521E02EB82029340B7
:100930009E436E630B790A885B1E92B203EB8303BE
:100940009A4003685D6B2A435A6327E005680D2AC5
:1009500012D22E6BD21F02EB820293409E432E6373
:100960000B790A88DB1F92B203EB83039A4003687A
:100970001D6B2A431A6311E0EE6A0D3A02EB820204
:1009800093409E43EE620B790A880D3B92B203EBD3
:1009900083039A400368DD6A2A43DA62164B0568CE
:1009A000144A9D4206D10D68122D03D1556845F4B5
:1009B0008005556005689D4218D10B68102B01D049
:1009C000112B13D1536843F40003536009681029B5
:1009D0000CD10A490A4A0968B1FBF2F101EB810125
:1009E000490000E0491E00910029FBD180F83C40FD
:1009F000002078BD002301400020014014000020A9
:100A000040420F00F0B563492DED048B83B00068C0
:100A100088427CD1604800F0E2F8604C80B24FF42C
:100A2000A57120804843050B0A26B5FBF6F006FBAE
:100A300010506580FFF78FFD9FED591B53EC112B74
:100A4000FFF7A8FC41EC180B6427B5FBF7F007FB98
:100A50001050B0FBF6F0FFF77EFD9FED531B53ECFB
:100A6000112BFFF797FC41EC190BB5FBF7F0FFF7E3
:100A700072FD53EC192BFFF7E6FB53EC182BFFF735
:100A8000E2FBFFF788FD606010254FF6E076002757
:100A9000CDE900653B4646A214210A20029701F0E9
:100AA0001DF9CDE9006500233A2214214120029767
:100AB00001F0B4F80097CDE90165042322881421E0
:100AC0004A2001F0C7FACDE9006500233AA232219D
:100AD0000A20029701F002F9CDE9006500233A22CD
:100AE00032214120029701F099F8CDE900650023F9
:100AF000032294ED010A32214E2001F05FFA606872
:100B0000FFF736FD9FED2E1B53EC112B00E03CE070
:100B1000FFF7B2FCFFF73FFD00EE100ADFED2A0AF7
:100B20000097CDE9016520EE200A03235A211E20FB
:100B3000BDEEC00A10EE104AA2B201F08BFACDE968
:100B40000065002325225A213C20029701F066F817
:100B5000A4F14C00182801D81C480FE0A4F1330080
:100B6000182801D81A4809E0A4F11A00182801D859
:100B7000184803E0641E182C07D817480090082373
:100B800010225A210A2001F0A4FA03B0BDEC048B14
:100B9000F0BD0000002001401800002000000020EF
:100BA0007B14AE47E17A843F9A9999999999B93F14
:100BB000B2C9D1F9D6B50000B5E7D1B9D6B50000B4
:100BC000666666666666FE3F0000C842144B000813
:100BD000144C0008144D0008144E000870470068BB
:100BE000C06C704770B50446006801684268C1F384
:100BF0004001C2F3401251B34AB3216CC90603D479
:100C0000216C41F400712164816811F0405F17D1BB
:100C1000217EA9B9C16A11F4700F02D0816849051B
:100C20000ED4416821F020014160206C20F48070D6
:100C30002064206CC00403D4206C40F001002064C8
:100C40002046FFF7DFFE21686FF012000860206881
:100C500001684268C1F38001C2F3C01289B382B354
:100C6000216CC90603D4216C41F4005121648168D0
:100C700011F4401F1ED1816B11F4401F02D0816816
:100C8000490517D44168490514D4816811F0405FC3
:100C900010D1217E71B9416821F080014160206C42
:100CA00020F480502064206CC00503D4206C40F0F8
:100CB000010020642046FFF7FEFD21686FF00C0064
:100CC000086020680168426811F0010FC2F38012C9
:100CD0000ED06AB10068C0070AD0206C40F48030A2
:100CE0002064204600F046F821686FF0010008609B
:100CF000206801684268C1F34011C2F38062002994
:100D00000DD0002A0BD0616C41F0020161646FF0DC
:100D1000200505602046FFF761FF2068056070BD73
:100D200070B504004FF0000503D0206C002610B110
:100D300007E0012070BD204600F01EF8666484F8CC
:100D40003C60206CC00610D4206C20F4885040F029
:100D5000020020642046FFF717FD6664206C20F037
:100D6000020040F00100206400E0012584F83C60AE
:100D7000284670BD7047000010B586B004461421A7
:100D80006846FFF755FA15492068884224D114486F
:100D90000021026842F480720260006800F48070F2
:100DA00005900F481438026842F00402026000689F
:100DB00000F004000590082000900320CDE9010117
:100DC0006946084800F0B0F800221146122000F0F1
:100DD000FBF9122000F0EAF906B010BD0020014036
:100DE000443802400008024018B50021009190F8F4
:100DF0003C20012A07D0012280F83C200268936839
:100E0000DB0702D011E0022018BD936843F0010314
:100E100093602C4A2C4B1268B2FBF3F202EB4202B5
:100E200000E0521E0092002AFBD102689368DB07A3
:100E300046D0036C40F20164A34343F4807303641F
:100E400053685B0505D5036C23F4005343F48053CA
:100E50000364036CDB0404D5436C23F00603436492
:100E600000E0416480F83C10184B6FF022011160E3
:100E700001684A68164C22434A6059680068CA06ED
:100E8000144906D088421BD1816811F0405F13D00D
:100E900016E08842F8D0104A904203D1D1F80423DA
:100EA000D206F1D00D4A90420AD1D1F8041301F0D4
:100EB0001F011029E8D303E0816841F0804181607F
:100EC000002018BD1400002040420F000023014004
:100ED00020000004002001400021014000220140C8
:100EE00090F83510022903D0802141650120704718
:100EF000052180F835100068016821F001010160CA
:100F00000020704770B5044600F0F0F80546601CFC
:100F100002D004480078044400F0E8F8401BA042E6
:100F2000FAD370BD080000202DE9F84F00224FF0E1
:100F3000010803254FF00F0E0B6808FA02F4234056
:100F4000A3426ED14E68012E05D0022E03D0112E81
:100F500001D0122E12D186684FEA420C05FA0CF726
:100F6000BE43CF6807FA0CF7374387604668A6434D
:100F70000C79C4F30014944034434460C6685700AD
:100F800005FA07FC8C6826EA0C06BC403443C460B2
:100F90004C68022C01D0122C13D1D40800EB84042D
:100FA000A346D4F8209054074FEAD46A0EFA0AF602
:100FB00029EA06090E6906FA0AF646EA0906CBF896
:100FC000206006680C7926EA0C0604F00304BC4095
:100FD000344304604C68E40065D5364C266846F41A
:100FE00080462660246822F0030604F480440094BE
:100FF000314C3444A446D4F808489607370F0EFA0B
:1010000007F6B4432D4EB04201D1002624E02C4E09
:10101000B04201D101261FE02A4EB04202D1022681
:101020001AE040E0284EB04201D1032614E0274EDA
:10103000B04201D104260FE0254EB04201D1052671
:101040000AE0244EB04201D1062605E0224EB0420D
:1010500001D1072600E00826BE402643CCF80868E8
:101060001E4E34684F689C43FF0300D51C43346018
:101070001A4C241D26684F689E43BF0300D51E43AB
:101080002660164E083634684F689C43FF0200D530
:101090001C433460114E0C3634684F689C43BF02C9
:1010A00000D51C433460521C102AFFF445AFBDE844
:1010B000F88F000044380240003001400000024038
:1010C0000004024000080240000C024000100240F0
:1010D0000014024000180240001C0240003C014085
:1010E0000AB1816170470904FBE70000014880688C
:1010F000704700000800002002488168027811440F
:1011000081607047080000200B4810B5016841F469
:1011100000710160016841F480610160016841F47F
:1011200080710160032000F06FF8002000F006F8E5
:1011300000F024F8002010BD003C024070B50D4DB9
:1011400004464FF47A712878B1FBF0F00A49096837
:10115000B1FBF0F000F002FB48B9102C07D20022DE
:101160002146501E00F030F800206C6070BD012058
:1011700070BD000008000020140000200A4808B5D7
:10118000016841F480410160006800F480400090F3
:101190000548001F016841F080510160006800F0BF
:1011A0008050009008BD000044380240002809DB50
:1011B00000F01F02012191404009800000F1E02071
:1011C000C0F8001170470000F0B40E4B1B680C46CD
:1011D000C3F30223C3F10705042D00D90425191D0B
:1011E000072901D2002300E0DB1E012606FA05F1E3
:1011F000491E214099409E40761E16403143F0BC66
:1012000001F035BA0CED00E0064900F0070208686D
:101210004FF6FF03184040EA0220034A10430860DB
:10122000704700000CED00E00000FA052DE9F047E2
:101230000E46050065D0DFF81481D8F80000F7B23B
:1012400000F00F00B04207D288F80070D8F8000014
:1012500000F00F00B04254D128683D4C810712D5F0
:10126000400703D5206840F4E0502060287800074C
:1012700003D5206840F4604020602068A96820F011
:10128000F000084320602878C0072DD030496868F6
:101290000839012812D0022813D0032811D0096878
:1012A000890700292DDA216821F00301014321601B
:1012B000FFF71CFF814641F2883A0EE00968890376
:1012C000EFE709688901ECE7FFF710FFA0EB0901E0
:1012D000514502D90320BDE8F0872068696800F015
:1012E0000C00B0EB810FEFD1D8F80010404601F0B0
:1012F0000F01B14207D90770006800F00F00B0423B
:1013000001D00120E7E72878400705D52068E96883
:1013100020F4E050084320602878000706D52068B4
:10132000296920F4604040EAC100206000F038F8EC
:101330002168084AC1F30311515CC840064908609E
:1013400006480068FFF7FAFE0020C4E7003C0240B0
:1013500008380240144F0008140000200C00002040
:101360000448054900680968044AC1F38221515CB8
:10137000C84070471400002008380240244F00087D
:101380000448054900680968044AC1F34231515CC8
:10139000C84070471400002008380240244F00085D
:1013A000154810B5006810F00C02144813D0411015
:1013B000042A0FD0082A0ED10F4C241F226823685C
:1013C00002F03F025B0207D52068C0F38810A0FB43
:1013D000010106E0084610BD2168C1F38811A1FB98
:1013E00000010023FEF7ECFE2168C1F30141491C16
:1013F0004900B0FBF1F010BD083802400024F400B1
:101400002DE9F84F04006ED02078DFF83C93C00738
:10141000A9F104054AD009F104000168C1F3810172
:10142000012908D00068C0F3810002280AD1D9F848
:101430000000400206D52868800337D56068002880
:10144000E1D033E06068B0F5803F10D0B0F5A02F58
:10145000286810D020F480302860286820F480208C
:1014600028606068A8B1FFF741FE06460DE02868D5
:1014700040F48030F4E740F480202860F7E700BFB4
:10148000FFF734FE801B642873D828688003F7D5E3
:101490000CE0FFF72BFE064605E000BFFFF726FE37
:1014A000801B6428F0D828688003F7D42078DFF800
:1014B0009C8280074FF0000A3ED5A348001D0168BA
:1014C00011F00C0F08D00068C0F3810002280BD186
:1014D000D9F80000400207D42868800716D5E068D4
:1014E000012800D112E02BE1E068B8B10120C8F872
:1014F0000000FFF7FBFD064605E000BFFFF7F6FD25
:10150000801B0228C0D828688007F7D52868216981
:1015100020F0F80040EAC10028600DE0C8F800A003
:10152000FFF7E4FD064604E0FFF7E0FD801B02281C
:101530001FD828688007F7D42078000722D5824E6C
:1015400083486169703671B101210160FFF7CEFDFA
:10155000074604E0FFF7CAFDC01B022809D830681F
:101560008007F7D50EE0C0F800A0FFF7BFFD0746E3
:1015700005E082E0FFF7BAFDC01B02287DD8306885
:101580008007F7D42078400768D5DFF8BCB1002782
:101590000BF13C0BDBF80000C0000BD4DBF80010B3
:1015A00041F08051CBF80010DBF80000012700F07B
:1015B00080500090674E3068C00510D4306840F409
:1015C00080703060FFF792FD009005E0FFF78EFD20
:1015D0000099401A022850D83068C005F6D55A4EF6
:1015E000A0686C3601280FD00528306810D020F094
:1015F00001003060306820F004003060A068B8B1AD
:10160000FFF774FD00900FE0306840F00100F4E750
:1016100040F004003060F7E7FFF768FD0099411AD9
:1016200041F28830814266D830688007F4D50EE0F8
:10163000FFF75CFD009007E0FFF758FD0099411AA5
:1016400041F28830814256D830688007F4D42FB1F7
:10165000DBF8001021F08051CBF80010A069C8B36E
:101660003949091D0968C1F3810102294AD00228BC
:10167000504607D0C8F8600000E03CE0FFF736FDB8
:1016800004463BE04746C8F86000FFF72FFD0646DA
:1016900005E000BFFFF72AFD801B02282BD8286831
:1016A0008001F7D4D4E907010843A16A2A4A49080E
:1016B00002EB0141626A41EA8211084394F82C105E
:1016C00040EA0161C9F8001001203866FFF70EFDFD
:1016D000044606E036E000BFFFF708FD001B0228C5
:1016E00009D828688001F7D52CE000BFFFF7FEFC81
:1016F000001B022802D90320BDE8F88F286880016A
:10170000F4D41FE00128F7D0D9F80000E26900F412
:101710008001914214D1226A00F03F0191420FD121
:1017200047F6C071626A0140914209D1A26A00F491
:101730004031914204D1E16A00F07060884201D0EA
:101740000120D9E70020D7E70438024000004742D3
:10175000800E4742007000400000FFFF10B5401EA1
:10176000B0F1807F01D3012010BD4FF0E024606113
:101770000F21601700F07BFF0020A061072020618F
:10178000002010BD7047000070B502680446106864
:10179000D168536910F00F0F52D003F0010501F426
:1017A00090762E435FD0C20705D0CA0503D5E26B01
:1017B00042F00102E263420705D5DA0703D0E26B8B
:1017C00042F00202E263820705D5DA0703D0E26B3A
:1017D00042F00402E263020707D501F020022A4327
:1017E00003D0E26B42F00802E263E26B002A33D0DE
:1017F000800604D5880602D5204600F01FFE20682A
:101800004069E16BC0F38010090700D428B320467B
:1018100000F006FE2068416949061AD5416921F0A9
:1018200040014161606BA0B11B490165606BFFF72E
:1018300057FB002810D0606B016DBDE87040084771
:10184000830610D58B060ED52046BDE8704000F00B
:10185000F5BD2046FFF796FF70BD2046FFF792FFCB
:101860000020E06370BD030606D50B0604D52046B4
:10187000BDE8704000F0C2BE4006F3D54806F1D581
:10188000D168204621F04001D160202184F8391030
:1018900000F075F870BD00001124000870B5040058
:1018A00004D094F83900002510B106E0012070BD85
:1018B00084F83850204600F023F8242084F83900BA
:1018C0002068C16821F40051C160204600F002FE8A
:1018D0002068016921F4904101612068416921F08B
:1018E0002A0141612068C16841F40051C160E5638B
:1018F000202084F8390084F83A00002070BD0000F0
:1019000010B586B0044614216846FEF791FC1849CC
:101910002068884229D117480021026842F010024D
:101920000260006800F01000059012481438026848
:1019300042F001020260006800F0010005904FF4DF
:10194000C06000900220CDE9010103200390072030
:10195000049069460848FFF7E7FA00220121252094
:10196000FFF732FC2520FFF721FC06B010BD000078
:1019700000100140443802400000024070477047A8
:10198000FEE72DE9F04107461C4615460E462A2083
:1019900000F0D4FBBF1CB8B200F0C4FBAD1CA8B271
:1019A00000F0C0FB2B2000F0C9FB761CB0B200F0A9
:1019B000B9FB641CA0B200F0B5FBBDE8F0412C20DF
:1019C00000F0BCBB10B514460B460246FFF7D9FF2A
:1019D0002046BDE8104000F0A5BB2DE9F047804649
:1019E0001F46581E83B21646501E82B20C46404611
:1019F000DDF82090FFF7C5FF0AE0454604E04846C1
:101A000000F090FB6D1CADB2B542F8D3641CA4B2DB
:101A1000BC42F2D3BDE8F08770B57F4D4FF48064CF
:101A2000002221462846FFF75BFB6420FFF76AFA95
:101A3000012221462846FFF753FB6420FFF762FA94
:101A4000012251032846FFF74BFB6420FFF75AFAA7
:101A5000112000F073FB7820FFF754FAB12000F05A
:101A60006DFB052000F080FB3C2000F07DFB3C205E
:101A700000F07AFBB22000F061FB052000F074FB5F
:101A80003C2000F071FB3C2000F06EFBB32000F026
:101A900055FB052000F068FB3C2000F065FB3C2076
:101AA00000F062FB052000F05FFB3C2000F05CFBD7
:101AB0003C2000F059FBB42000F040FB032000F074
:101AC00053FBC02000F03AFB282000F04DFB08201B
:101AD00000F04AFB042000F047FBC12000F02EFB81
:101AE000C02000F041FBC22000F028FB0D2000F0D8
:101AF0003BFB002000F038FBC32000F01FFB8D20D3
:101B000000F032FB2A2000F02FFBC42000F016FB6F
:101B10008D2000F029FBEE2000F026FBC52000F010
:101B20000DFB1A2000F020FB362000F007FBC02040
:101B300000F01AFBE02000F001FB042000F014FB91
:101B4000222000F011FB072000F00EFB0A2000F01D
:101B50000BFB2E2000F008FB302000F005FB2520B9
:101B600000F002FB2A2000F0FFFA282000F0FCFA27
:101B7000262000F0F9FA2E2000F0F6FA3A2000F0C4
:101B8000F3FA002000F0F0FA012000F0EDFA032053
:101B900000F0EAFA132000F0E7FAE12000F0CEFAB4
:101BA000042000F0E1FA162000F0DEFA062000F032
:101BB000DBFA0D2000F0D8FA2D2000F0D5FA26200F
:101BC00000F0D2FA232000F0CFFA272000F0CCFA60
:101BD000272000F0C9FA252000F0C6FA2D2000F0D9
:101BE000C3FA3B2000F0C0FA002000F0BDFA01204B
:101BF00000F0BAFA042000F0B7FA132000F0B4FAAB
:101C00003A2000F09BFA052000F0AEFABDE87040E3
:101C1000292000F093BA0000000C02402DE9FF4F8C
:101C200081B00446DDE90F7B4FEA570800904FEA88
:101C3000D80000FB07FA203AD0B20390029802992C
:101C40003844401E83B204EB0800401E82B2204696
:101C5000FFF797FE002637E0102F24D0202F35D134
:101C60001C49039801EB80105FF0000510F8069006
:101C7000BBF1000F4FF0010000FA05F000EA090087
:101C800016D020B12046049A0299FFF79BFE641CEF
:101C90000098A4B2211A414510D10298009C401C22
:101CA00080B202900EE00C49039801EB0010DBE7D4
:101CB00008B1049800E00E9800F034FA6D1CEDB203
:101CC000082DD5D3761CB6B25645C5D305B0BDE8B0
:101CD000F08F0000F42C0008042700082DE9FE4FC7
:101CE0009946DDE90D4715468A460646DDF83080FF
:101CF00012E0102C15D0182C1ED0202C0FD1CDF8AE
:101D00000080CDE901474B462A465146304600F057
:101D1000EDF8301986B2AD1C28780028E9D1BDE86D
:101D2000FE8FCDF80080CDE901474B462A4651464B
:101D3000304600F00DF8ECE7CDF80080CDE9014722
:101D40004B462A465146304600F066F8E1E700006F
:101D50002DE9FF4F83B00446DDF8448081464FEA09
:101D6000D80000FB08FB1220002601902948059AA4
:101D700006EB061110F811301278934241D100EBB6
:101D800041000090417805984078814239D104990A
:101D900001EB0800401E83B204EB0800401E82B233
:101DA0002046FFF7EEFD002729E00098002500EB14
:101DB000070A00BF9AF80210129828B10120A84023
:101DC00001420AD0069A04E08020E8400142F9D19D
:101DD000109A20460499FFF7F5FD641CA4B2A4EB09
:101DE0000901414505D104984C46401C80B204903D
:101DF00003E06D1CEDB2082DDCD37F1CFFB25F4504
:101E0000D3D3761C0198B6B28642AFD307B0BDE8F3
:101E1000F08F0000B44400082DE9FF4F83B0044662
:101E2000DDE9119B00904FEAD90000FB09FA05207B
:101E30000026029006EB860000EB46112A48059A20
:101E400010F811301278934245D100EB4100019017
:101E500041780598407881423DD1049804994844DE
:101E6000401E83B204EB0900401E82B22046FFF7F9
:101E700088FD00272DE00198002500EB070800BF32
:101E8000BBF1000F98F802104FF0010000FA05F0C6
:101E900001EA000111D021B12046069A0499FFF70A
:101EA00091FD641C0098A4B2211A49450BD10498F5
:101EB000009C401C80B2049009E009B1069800E043
:101EC000109800F02FF96D1CEDB2082DD8D37F1CAF
:101ED000FFB25745CFD3761C0298B6B28642A9D33B
:101EE00007B0BDE8F08F0000184700082DE9FF4F4C
:101EF00083B00446DDE9119B00904FEAD90000FB56
:101F000009FA0520002602902B48059A06EB861157
:101F100010F811301278934245D100EB4100019046
:101F200041780598407881423DD10498049948440D
:101F3000401E83B204EB0900401E82B22046FFF728
:101F400020FD00272DE00198002500EB070800BFC9
:101F5000BBF1000F98F802104FF0010000FA05F0F5
:101F600001EA000111D021B12046069A0499FFF739
:101F700029FD641C0098A4B2211A49450BD104988C
:101F8000009C401C80B2049009E009B1069800E072
:101F9000109800F0C7F86D1CEDB2082DD8D37F1C47
:101FA000FFB25745CFD3761C0298B6B28642ABD368
:101FB00007B0BDE8F08F00008A4800082DE9FF4F08
:101FC00083462DED020B83B0DFED210A139F1546EA
:101FD00020EE200A7E080024A246BCEEC00A10EEC5
:101FE000100A1FFA80F92DE0281B401EC1B20A20FA
:101FF00000F080FBB9FBF0F00A21B0FBF1F201FB2D
:102000001208A81E84420ED1129A00FB06B08DE879
:10201000840480B22E22089B0699FFF7FFFD641C02
:102020006D1CE4B2EDB212988DE8810408F1300025
:10203000C2B204FB06B080B2089B0699FFF7EEFD22
:10204000641CE4B2AC42CFD309B0BDE8F08F00000D
:102050000000C8422DE9FF4F83B00026DDE911B82A
:102060001D4682464FEA58073446B1462CE0281BED
:10207000401EC1B20A2000F03DFB0599B1FBF0F013
:102080000A21B0FBF1F201FB120026B9691E8C4255
:1020900001DA58B101263030C2B204FB07A0CDF8F6
:1020A00000B0CDE9018980B2109B08E0CDF800B006
:1020B00004FB07A0CDE90189109B80B2202204997E
:1020C000FFF7ACFD641CE4B2AC42D0D307B0BDE86E
:1020D000F08F2DE9F0471F469046CA19521E93B261
:1020E00000EB0802521E002492B2DDF82090FFF7A8
:1020F00048FC002612E000250CE019F8140000F05E
:102100001BF809EB4400407800F016F8641C6D1CC5
:10211000A4B2ADB2BD42F0D3761CB6B24645EAD306
:10212000BDE8F08710B50446000A00F01DF8E0B2E3
:10213000BDE8104000F018B800F016B870B5094DB1
:1021400006464FF40064002221462846FEF7C8FFE9
:10215000304600F009F821462846BDE870400122CB
:10216000FEF7BEBF000C02402DE9F047164E0546B3
:102170004FF48059002249463046FEF7B1FF002453
:102180004FF40078B715002239463046FEF7A8FF15
:10219000280601D5012200E0002241463046FEF724
:1021A0009FFF012239463046FEF79AFF6806641CFD
:1021B000050EE4B2082CE6D349463046BDE8F047A8
:1021C0000122FEF78DBF0000000C02407FB5002405
:1021D00015480094019402941249039401604FF44D
:1021E0008031C0E901140461047680F820400F4971
:1021F000C0E90A140125C561C46080F8304045611A
:10220000FEF78EFD08B1FEF755FB0D20CDE9000568
:10221000694602940448FEF74FFB002801D0FEF700
:1022200049FB7FBD00200140180000200100000F85
:10223000F0B587B014216846FDF7FAFF1D48002568
:10224000016841F080010160016801F080010591A1
:10225000016841F001010160016801F0010105918F
:10226000016841F0080101600068134F00F00800A8
:102270004FF440640590002221463846FEF730FFB7
:10228000A600002231463846FEF72AFF00940124BA
:10229000694638460194CDE90245FEF745FECDE991
:1022A000006469463846CDE90245FEF73DFE07B0B9
:1022B000F0BD000030380240000C02400C4810B560
:1022C0000A4901604FF4E1314160002181600C2234
:1022D000C160C0E904128161C161FFF7DFFA002823
:1022E00003D0BDE81040FEF7E5BA10BD0010014074
:1022F00060000020FEE770477047000070B5184886
:1023000086B0016841F008010160016801F0080130
:102310000591016841F00801016000684FF4807583
:1023200000F008000590012403200E4ECDE9005472
:10233000039069463046FEF7F7FD012229463046F4
:10234000FEF7CEFE6502CDE9005469463046FEF741
:10235000EBFD012229463046FEF7C2FE06B070BDF5
:1023600030380240000C02407047FEF7C5BE000046
:1023700030B593B030216846FDF75AFF14210CA800
:10238000FDF756FF19480025016841F080510160B2
:10239000006800F0805011901548016841F48041B8
:1023A00001600068022400F4804011900120009038
:1023B000000401908001CDE9064008AA0420A8216C
:1023C00082E813000B906846FFF71AF80CA90F205B
:1023D00081E831004FF4A0500F90E00210900521E9
:1023E0000CA8FEF723FF13B030BD000040380240B8
:1023F000007000400548016841F470010160034924
:102400004FF00060803908607047000088ED00E000
:1024100010B5806B0021C185C184FFF7B3F910BDF1
:102420000168CA6822F49072CA6001684A6922F0A1
:1024300001024A61202180F83A10704710B590F8E7
:102440003A10222901D0022010BD8168B1F5805FC9
:1024500011D00169002901681FD0496801F07F038C
:10246000816A4A1C82620B70C18D491E0904090CE5
:10247000C18518D02BE00269816A002A026852687F
:1024800005D0D2B20A80816A491C8162ECE7C2F3AE
:1024900008020A80816A891CF7E74A68816A4B1C36
:1024A00083620A70E0E70168CA6822F02002CA600D
:1024B0000168CA6822F48072CA6001684A6922F021
:1024C00001024A61202180F83A10FFF757FA0020F4
:1024D00010BD00002DE9F041044600680169E26882
:1024E00021F44051114301612169A068E269084368
:1024F0006169114308432168CA6849F20C639A4331
:102500000243CA6020684169A26921F44071114305
:102510004161E069192764253226B0F5004F354A3C
:10252000354920684FF0000806D0884201D090421B
:1025300036D1FEF725FF35E0884201D0904202D126
:10254000FEF71EFF01E0FEF70BFF61684A18A0FBD3
:10255000070148EB0803FDF733FE0146B0FBF5F039
:102560000201B1FBF5F06FF01803584301EB800056
:1025700006EBC000B0FBF5F000F0F80002EB400203
:10258000B1FBF5F0584301EB800006EBC000B0FB57
:10259000F5F000F00700216810448860BDE8F08184
:1025A000FEF7DEFE61688B0F8A00A0FB0701FDF7D6
:1025B00007FE0146B0FBF5F06FF01802504301EB47
:1025C000800006EB0010B0FBF5F000F0F002B1FB6C
:1025D000F5F002EB0012B1FBF5F06FF01803584371
:1025E00001EB800006EB0010B0FBF5F000F00F00EF
:1025F000D1E70000001401400010014090F83910AC
:10260000212901D0022070478168B1F5805F016AFD
:102610000BD04A1C0262026809785160C18C491EC5
:102620000904090CC1840ED017E009880268C1F3BF
:102630000801516001690029016A02D0491C016248
:10264000ECE7891CFBE70168CA6822F08002CA60D7
:102650000068C16841F04001C1600020704700007F
:102660000148FFF791B8000060000020FEE709076D
:10267000090E002804DB00F1E02080F80014704708
:1026800000F00F0000F1E02080F8141D704702E018
:1026900008C8121F08C1002AFAD1704770470020ED
:1026A00001E001C1121F002AFBD1704708B5FEF7F7
:1026B0002BFDFFF75DFEFFF7BBFDFFF787FDFFF783
:1026C000FDFDFFF71BFEFFF7A7F94FF6E0700021B5
:1026D0000090A02380220846FFF77FF94FF4FA7498
:1026E0000348FEF781FB2046FEF70CFCF8E70000EC
:1026F000180000200246012000E05043491EC9B2E4
:10270000FBD2704700000000000000000000000045
:102710000000000000000008080808080808000081
:102720001818000000486C2412000000000000008F
:10273000000000000000002424247F1212127F12E7
:10274000121200000000081C2A2A0A0C1828282A45
:102750002A1C080800000022251515152A58545473
:10276000542200000000000C1212120A76252911D2
:10277000916E000000060604030000000000000047
:102780000000000000402010100808080808081089
:10279000102040000002040808101010101010084B
:1027A000080402000000000008086B1C1C6B0808ED
:1027B0000000000000000000080808087F08080862
:1027C0000800000000000000000000000000000001
:1027D000060604030000000000000000FE000000E8
:1027E00000000000000000000000000000000000E9
:1027F0000606000000008040402020101008080459
:1028000004020200000000182442424242424242B6
:1028100024180000000000080E080808080808082E
:10282000083E00000000003C424242202010080404
:10283000427E00000000003C4242201820404042FE
:10284000221C0000000000203028242422227E20A8
:10285000207800000000007E0202021A264040425A
:10286000221C0000000000382402021A26424242C4
:10287000241800000000007E22221010080808081A
:10288000080800000000003C424242241824424252
:10289000423C00000000001824424242645840407C
:1028A000241C0000000000000000181800000000B8
:1028B00018180000000000000000000800000000E0
:1028C000000808040000004020100804020408105A
:1028D000204000000000000000007F0000007F009A
:1028E0000000000000000002040810204020100832
:1028F000040200000000003C42424640201010004C
:10290000181800000000001C225A555555552D423C
:10291000221C00000000000808181414243C224265
:1029200042E700000000001F2222221E22424242F3
:10293000221F00000000007C42420101010101420F
:10294000221C00000000001F22424242424242423A
:10295000221F00000000003F4212121E121202420B
:10296000423F00000000003F4212121E12120202FB
:10297000020700000000003C222201010171212217
:10298000221C0000000000E7424242427E424242D6
:1029900042E700000000003E080808080808080890
:1029A000083E00000000007C1010101010101010E5
:1029B0001010110F0000007722120A0E0A121222C4
:1029C0002277000000000007020202020202020257
:1029D000427F000000000077363636362A2A2A2A3F
:1029E0002A6B0000000000E346464A4A52525262F7
:1029F000624700000000001C224141414141414129
:102A0000221C00000000003F424242423E020202FD
:102A1000020700000000001C2241414141414D538A
:102A2000321C60000000003F4242423E121222224D
:102A300042C700000000007C4242020418204042CD
:102A4000423E00000000007F490808080808080806
:102A5000081C0000000000E742424242424242425B
:102A6000423C0000000000E74242222424141418D3
:102A7000080800000000006B4949494955553622B5
:102A800022220000000000E7422424181818242401
:102A900042E700000000007722221414080808080A
:102AA000081C00000000007E2120101008040442D1
:102AB000423F0000007808080808080808080808CD
:102AC000080878000000020204040808081010201A
:102AD00020204040001E1010101010101010101078
:102AE00010101E000038440000000000000000002C
:102AF00000000000000000000000000000000000D6
:102B0000000000FF000608000000000000000000B8
:102B100000000000000000000000003C4278444239
:102B200042FC0000000000030202021A2642424258
:102B3000261A0000000000000000003844020202D3
:102B40004438000000000060404040784442424267
:102B500064D80000000000000000003C427E020239
:102B6000423C0000000000F08808087E08080808C1
:102B7000083E0000000000000000007C22221C0231
:102B80003C42423C000000030202023A46424242FA
:102B900042E700000000000C0C00000E08080808C6
:102BA000083E0000000000303000003820202020C7
:102BB0002020221E0000000302020272120A1612D6
:102BC000227700000000000E08080808080808081E
:102BD000083E0000000000000000007F92929292E8
:102BE00092B70000000000000000003B4642424255
:102BF00042E70000000000000000003C4242424268
:102C0000423C0000000000000000001B264242423F
:102C1000221E0207000000000000007844424242E9
:102C2000447840E000000000000000774C040404F9
:102C3000041F0000000000000000007C42023C4035
:102C4000423E0000000000000008083E0808080896
:102C500008300000000000000000006342424242D1
:102C600062DC000000000000000000E742242414A1
:102C70000808000000000000000000EB494955551D
:102C8000222200000000000000000076241818181E
:102C9000246E000000000000000000E7422424141D
:102CA00018080807000000000000007E2210080835
:102CB000447E000000C02020202020102020202062
:102CC0002020C00010101010101010101010101044
:102CD0001010101000060808080808100808080856
:102CE000080806000C32C2000000000000000000CE
:102CF00000000000000000000000000000000000D4
:102D000000000000000000000000000000000000C3
:102D100000000000000000000000000000000000B3
:102D200000000000000000000000000000000000A3
:102D30000000000000000000000000000000C001D2
:102D4000C001C001C001C001C001C00180008000FD
:102D500080008000800080008000000000000000F3
:102D600000008001C003C0038001000000000000DB
:102D700000000000000000000000E01CE01CF01E4D
:102D8000700E3807180308018400000000000000DE
:102D90000000000000000000000000000000000033
:102DA0000000000000000000000000000000000023
:102DB0000000000000000000000000000000000013
:102DC00020102010201020102010FE7FFE7F100801
:102DD000100810081008100810081008FE7FFE7F69
:102DE00008040804080408040804000000000000A7
:102DF00000000000000000000000000000010001D1
:102E0000C0076019103118311839183938017001AC
:102E1000E001C0038007000F001D003900311C31A4
:102E20001C310C310C11180DE007000100010001EC
:102E30000000000000000000000000000000000092
:102E40001C1036186308630C630463046302630296
:102E50006301361D9C37802280634063406320639A
:102E60002063306310221836081C000000000000A8
:102E70000000000000000000000000000000000052
:102E8000F00098018C018C018C018C018C00CC002D
:102E90007800183E1C083608320863046304C30433
:102EA000C303834306438E26781C00000000000005
:102EB000000000000000000000001C003C003C007E
:102EC0003000300010000C00060000000000000080
:102ED00000000000000000000000000000000000F2
:102EE00000000000000000000000000000000000E2
:102EF0000000000000000000000000400020001062
:102F00000008000C00040006000300030003800119
:102F10008001800180018001800180018001000327
:102F20000003000300060006000C0008001000204B
:102F30000040000000000000000002000400080043
:102F40001000300020006000C000C000C000800100
:102F50008001800180018001800180018001C0002A
:102F6000C000C000600060003000100008000400D5
:102F7000020000000000000000000000000000004F
:102F80000000000000018003800300011C713C79F7
:102F9000783DC0070001C007783D3C791C710001F5
:102FA000800380038001000000000000000000009A
:102FB0000000000000000000000000000000000011
:102FC00000000000000000010001000100010001FC
:102FD00000010001FC7F000100010001000100016F
:102FE00000010001000000000000000000000000DF
:102FF00000000000000000000000000000000000D1
:1030000000000000000000000000000000000000C0
:1030100000000000000000000000000000000000B0
:10302000000000001C003C003C003000300010009C
:103030000C0006000000000000000000000000007E
:103040000000000000000000000000000000000080
:1030500000000000FE7F00000000000000000000F3
:103060000000000000000000000000000000000060
:103070000000000000000000000000000000000050
:103080000000000000000000000000000000000040
:103090000000000000000000000000000000000030
:1030A000000018003C003C00180000000000000078
:1030B0000000000000000000000000400060002050
:1030C0000030001000180008000C00040006000288
:1030D0000003000180018000C0004000600020006B
:1030E00030001000180008000C0004000600020068
:1030F00000000000000000000000000000000000D0
:10310000C007600C30181830183018200C600C60A4
:103110000C600C600C600C600C600C600C60182083
:10312000183018303018600CC00700000000000094
:10313000000000000000000000000000000000008F
:1031400000018001F801800180018001800180017F
:103150008001800180018001800180018001800167
:10316000800180018001C003F81F00000000000002
:10317000000000000000000000000000000000004F
:10318000E007101C0818043004300C300C300030FC
:103190000018000800040002000180004000202008
:1031A000102008200430FC1FFC1F0000000000005D
:1031B000000000000000000000000000000000000F
:1031C000E003180E0C0C0C180C180C180018000C4E
:1031D0000006C003000E00180010003000300C3054
:1031E0000C300C100C18180CE0030000000000005C
:1031F00000000000000000000000000000000000CF
:10320000000C000E000E000F800E800E400E600EAF
:10321000200E100E100E080E040E040EFE7F000E7F
:10322000000E000E000E000E000EC07F0000000019
:10323000000000000000000000000000000000008E
:10324000F03FF03F10001000100008000800C80711
:10325000280C1818081000300030003000300C30F6
:103260000C3004180418080CF003000000000000E3
:10327000000000000000000000000000000000004E
:10328000800FC010203010301800180008000C000B
:103290008C0F6C183C301C600C600C600C600C6077
:1032A0001860182030306018C007000000000000CF
:1032B000000000000000000000000000000000000E
:1032C000F83FF83F1C100C08040804040004000236
:1032D0000002000100010001800080008000C000A9
:1032E000C000C000C000C000C0000000000000001E
:1032F00000000000000000000000000000000000CE
:10330000E007300C18180C300C300C301C3038181A
:103310007008E007B007180E0C1C0638063006309F
:10332000063006300C18180CE00300000000000006
:10333000000000000000000000000000000000008D
:10334000E00318040C080C1806100630063006308E
:10335000063006380C3C1836F031003000180018E2
:1033600000180C0C0C060C03F0010000000000001B
:10337000000000000000000000000000000000004D
:1033800000000000000000000000000000008001BC
:10339000C003C00380010000000000000000000026
:1033A00000008001C003C003800100000000000095
:1033B000000000000000000000000000000000000D
:1033C0000000000000000000000000000000C0003D
:1033D000C00000000000000000000000000000002D
:1033E000000000000000C000C0008000800040001D
:1033F000400000000000000000000000000000206D
:10340000001000080004000600038001C0006000F6
:10341000300018000C00180030006000C00080016F
:103420000003000600040008001000200000000057
:10343000000000000000000000000000000000008C
:103440000000000000000000000000000000FE7FFF
:1034500000000000000000000000FE7F00000000EF
:10346000000000000000000000000000000000005C
:103470000000000000000000000000000000040048
:103480000800100020006000C0008001000300065A
:10349000000C001800300018000C0006000380012A
:1034A000C0006000200010000800040000000000C0
:1034B0000000000000000000000000000000C00745
:1034C0003018083008600C601C601C601C60003004
:1034D000001C0006000180008000800080000000C9
:1034E00000008001C003C003800100000000000054
:1034F00000000000000000000000000000000000CC
:10350000C0076018103018200C2F8C4D864CC64C0C
:10351000C64C664C66446644662666266615CC1C18
:103520000C40082018303018C007000000000000D0
:10353000000000000000000000000000000000018A
:10354000C001C001C001400160032003200320032B
:103550003006100610061006F80F080C080C080CB0
:103560000C0C0418041806181F7C00000000000052
:10357000000000000000000000000000000000004B
:10358000FE07181C18381830183018301830181862
:10359000180CF807181818301820186018601860F0
:1035A0001860186018301818FE0F000000000000A6
:1035B000000000000000000000000000000000000B
:1035C000C0276038103018200C400C400400060062
:1035D00006000600060006000600060006000C4075
:1035E0000C400C2018303018C0070000000000000C
:1035F00000000000000000000000000000000000CB
:10360000FE03180E1818183018301830186018609B
:10361000186018601860186018601860186018301A
:10362000183018101818180EFE03000000000000D3
:10363000000000000000000000000000000000008A
:10364000FE3F183018201860184018001808180895
:10365000180CF80F180C1808180818001800180093
:103660001840184018201830FE3F000000000000ED
:10367000000000000000000000000000000000004A
:10368000FE7F1870184018C0188018001810181005
:103690001818F81F1818181018101800180018001B
:1036A00018001800180018007E000000000000003C
:1036B000000000000000000000000000000000000A
:1036C000C013701C101018100C200C2004000600F1
:1036D000060006000600060006FC063006300C3028
:1036E0000C30183018303008C0070000000000000F
:1036F00000000000000000000000000000000000CA
:103700003F7E0C180C180C180C180C180C180C1800
:103710000C180C18FC1F0C180C180C180C180C1892
:103720000C180C180C180C183F7E0000000000004C
:103730000000000000000000000000000000000089
:10374000F81F8001800180018001800180018001DB
:103750008001800180018001800180018001800161
:103760008001800180018001F81F0000000000003E
:103770000000000000000000000000000000000049
:10378000E07F0006000600060006000600060006B0
:1037900000060006000600060006000600060006F9
:1037A0000006000600060006000600060E060E03D0
:1037B0008E01FC000000000000000000000000007E
:1037C0007E7C1818180818041806180218019801A9
:1037D0009801D801B803380318071806180E180CFA
:1037E000181C1818183018307EFC0000000000006B
:1037F00000000000000000000000000000000000C9
:103800007E00180018001800180018001800180092
:1038100018001800180018001800180018001800E8
:103820001840184018201830FE3F0000000000002B
:103830000000000000000000000000000000000088
:103840001FF81C381C381C381C3C343434343434D5
:10385000343674326432643264326431C431C43117
:10386000C431C430C43084309FFC0000000000002C
:103870000000000000000000000000000000000048
:103880001F7C1C103C103410341074106410E410B1
:10389000C410C41184118413041304170416041EE5
:1038A000041C041C041C04181F1800000000000065
:1038B0000000000000000000000000000000000008
:1038C000C003300C181808100C300C30066006606D
:1038D00006600660066006600660066006600C20F2
:1038E0000C3008101818300CC00300000000000055
:1038F00000000000000000000000000000000000C8
:10390000FE0F1818183018601860186018601860DA
:1039100018301818F80F18001800180018001800B0
:1039200018001800180018007E00000000000000B9
:103930000000000000000000000000000000000087
:10394000C003300C18180C100C300C2006600660F8
:103950000660066006600660066006600660E46158
:103960002C331C321816300EC007004C007C003877
:103970000000000000000000000000000000000047
:10398000FE07181C1838183018301830183018185E
:10399000180CF80798031803180718061806180ECD
:1039A000180C180C181C18187E7800000000000075
:1039B0000000000000000000000000000000000007
:1039C000E027303818300C200C200C000C001800B8
:1039D0007800E003800F001E003800700060046073
:1039E0000460086018303818C80F0000000000009C
:1039F00000000000000000000000000000000000C7
:103A0000FC3F8C21846182418241800180018001E0
:103A1000800180018001800180018001800180019E
:103A20008001800180018001E007000000000000AB
:103A30000000000000000000000000000000000086
:103A40003F7C0C100C100C100C100C100C100C10F7
:103A50000C100C100C100C100C100C100C100C1086
:103A60000C100C1008083804E003000000000000EF
:103A70000000000000000000000000000000000046
:103A80003EF8182018201820301030103010301058
:103A9000600860086008E00CC004C004C004800333
:103AA000800380038003000100010000000000008B
:103AB0000000000000000000000000000000000006
:103AC000DFF38661862186218C210C218C238C13C7
:103AD0008C138C134C1358125816580E380E380E7F
:103AE000380E300C10041004100400000000000018
:103AF00000000000000000000000000000000000C6
:103B00007E3E180838083004300470026002E0017C
:103B1000C001C00180018003400340072006200649
:103B2000100C100C081808183E7C00000000000063
:103B30000000000000000000000000000000000085
:103B40007E7C1C10181018083008300C70046004BB
:103B50006002C002C002C0018001800180018001BA
:103B60008001800180018001E0070000000000006A
:103B70000000000000000000000000000000000045
:103B8000F83F18180818040C040E0006000700037C
:103B900080038001C001C000E000600070003000C0
:103BA000382018201C100C18FE1F00000000000018
:103BB00000000000000000000000C03F4000400086
:103BC00040004000400040004000400040004000F5
:103BD00040004000400040004000400040004000E5
:103BE0004000400040004000400040004000C03F16
:103BF00000000000000000000000000000000800BD
:103C00001800180010003000200060006000400024
:103C1000C000800080018001000100030002000656
:103C200000060004000C0008001800180010003006
:103C300000200000000000000000FC030002000261
:103C40000002000200020002000200020002000264
:103C50000002000200020002000200020002000254
:103C60000002000200020002000200020002FC0347
:103C7000000000000000000000008007C0062008CF
:103C80001010000000000000000000000000000014
:103C90000000000000000000000000000000000024
:103CA0000000000000000000000000000000000014
:103CB0000000000000000000000000000000000004
:103CC00000000000000000000000000000000000F4
:103CD00000000000000000000000000000000000E4
:103CE00000000000000000000000000000000000D4
:103CF0000000FFFF0000000000007800C00000018D
:103D000000000000000000000000000000000000B3
:103D100000000000000000000000000000000000A3
:103D20000000000000000000000000000000000093
:103D30000000000000000000000000000000000083
:103D40000000000000000000000000000000F00380
:103D500018060C0C0C0C000C800F700C1C0C0C0CBE
:103D6000060C060C064C0C4FF83800000000000052
:103D70000000000000000000000000000000100033
:103D80001E00180018001800180018001800180F5E
:103D9000D8183830386018601860186018601860DB
:103DA0001860182038307818C8070000000000009C
:103DB0000000000000000000000000000000000003
:103DC0000000000000000000000000000000C0072C
:103DD000700C181818180C180C000C000C000C00B3
:103DE0000C20182018103008C00700000000000048
:103DF00000000000000000000000000000000010B3
:103E0000001E001800180018001800180018E01B09
:103E1000301C181818180C180C180C180C180C1842
:103E20000C180818181C307AE00900000000000087
:103E30000000000000000000000000000000000082
:103E40000000000000000000000000000000C007AB
:103E5000300C181808100C300C30FC3F0C000C0013
:103E60000C00182018107018C00700000000000097
:103E70000000000000000000000000000000000042
:103E8000003E80C380C0C0C0C000C000C000FC1F96
:103E9000C000C000C000C000C000C000C000C00022
:103EA000C000C000C000C000F80F0000000000000B
:103EB0000000000000000000000000000000000002
:103EC0000000000000000000000000000000C077BB
:103ED000306C10181818181818181018300CF00733
:103EE00018001800F00FF03F08700C600C600C60B8
:103EF0003838E00F00000000000000000000100053
:103F00001E00180018001800180018001800980F5C
:103F1000D818383018301830183018301830183099
:103F200018301830183018307EFC000000000000F7
:103F30000000000000000000000000000000000081
:103F40008003800380030000000000000001F801EE
:103F50008001800180018001800180018001800159
:103F60008001800180018001F81F00000000000036
:103F70000000000000000000000000000000000041
:103F80000038003800380000000000000010801FDA
:103F90000018001800180018001800180018001861
:103FA0000018001800180018001800180018180C45
:103FB0001806F003000000000000000000001000E0
:103FC0001E00180018001800180018001800183EED
:103FD000180C1806180318019801D801380318079F
:103FE0001806180C181C18187E7C00000000000031
:103FF00000000000000000000000000000000001C0
:10400000F801800180018001800180018001800130
:104010008001800180018001800180018001800198
:104020008001800180018001F81F00000000000075
:104030000000000000000000000000000000000080
:104040000000000000000000000000000800EE1C5E
:104050009C338C318C318C318C318C318C318C3166
:104060008C318C318C318C31DE7B00000000000003
:104070000000000000000000000000000000000040
:1040800000000000000000000000000010001E0FF3
:10409000D818383018301830183018301830183018
:1040A00018301830183018307EFC00000000000076
:1040B0000000000000000000000000000000000000
:1040C0000000000000000000000000000000C00729
:1040D000701C103018300C600C600C600C600C60B0
:1040E0000C60183018303018C007000000000000C5
:1040F00000000000000000000000000000000000C0
:1041000000000000000000000000000010009E0FF2
:104110005818383018201860186018601860186037
:1041200018601830383078189807180018001800F0
:1041300018007E00000000000000000000000000E9
:104140000000000000000000000000000000C0238C
:10415000303C183818300C300C300C300C300C302F
:104160000C3008301838303CE0330030003000307C
:10417000003000FC00000000000000000000000013
:1041800000000000000000000000000060007E3C15
:1041900060666061E000E000600060006000600058
:1041A0006000600060006000FE070000000000008A
:1041B00000000000000000000000000000000000FF
:1041C0000000000000000000000000000000E027E8
:1041D00030381830182018007000E003800F001CE1
:1041E000043004300C301C18EC0F000000000000FC
:1041F00000000000000000000000000000000000BF
:1042000000000000800080008000C000E000FC1F73
:10421000C000C000C000C000C000C000C000C0009E
:10422000C000C020C0208011000F0000000000006E
:10423000000000000000000000000000000000007E
:1042400000000000000000000000000010201E3CE4
:10425000183018301830183018301830183018301E
:1042600018301830183830F4E01300000000000057
:10427000000000000000000000000000000000003E
:1042800000000000000000000000000000007E3C74
:1042900018181808380830043004700260026002F0
:1042A000E001C001C001C00080000000000000006B
:1042B00000000000000000000000000000000000FE
:1042C0000000000000000000000000000000DFF718
:1042D0008E630C238C238C2398139813581658162E
:1042E000700E700E700E200420040000000000000C
:1042F00000000000000000000000000000000000BE
:104300000000000000000000000000000000FC3E73
:1043100070087004E004C002C001800380034007FD
:104320006006200C100C18183E7E000000000000F3
:10433000000000000000000000000000000000007D
:1043400000000000000000000000000000007E7C73
:104350001818180830083008300460046004C002DF
:10436000C002C002800180018001800080008000C6
:104370004C003C00000000000000000000000000B5
:104380000000000000000000000000000000FC1F12
:104390000C0C040E0406000380038001C000E00042
:1043A0007020302038301C18FC1F00000000000076
:1043B00000000000000000000000003000080004C1
:1043C00000040004000400040004000400040004CD
:1043D0000004000280010002000400040004000444
:1043E00000040004000400040004000400040008A9
:1043F0000030000000010001000100010001000187
:1044000000010001000100010001000100010001A4
:104410000001000100010001000100010001000194
:104420000001000100010001000100010001000184
:10443000000100010000000000000C00100020003E
:10444000200020002000200020002000200020006C
:1044500020004000800140002000200020002000BB
:10446000200020002000200020002000200010005C
:104470000C00000000003800C400864002610022E9
:10448000001C000000000000000000000000000010
:10449000000000000000000000000000000000001C
:1044A000000000000000000000000000000000000C
:1044B00000000000D0D51020102011201120FDFC9C
:1044C000252026202420242049FC282010202820D4
:1044D000442083FE0000C3FB0200020007F0081026
:1044E000142062400280010006001FF8E808080856
:1044F000080808080FF80808C1F5100408040804A3
:10450000FFA402244224222414241424082408246E
:1045100014242404420482140008C9D00100210894
:104520001110092001003FF82008200827C824485E
:104530002448244827C8200820282010D3EE020051
:1045400001007FFE400280043FF8010001000100ED
:10455000FFFE010001000100010005000200B0E0C3
:1045600000800080F8BE2288228822882288FABE35
:104570002288248820883908E108423E0400080087
:10458000BCB6100013FC208420884888F890109C4A
:1045900020844144F944412801281A10E228444467
:1045A0000182D0C5084008200BFE1000100031FC2D
:1045B0003000500091FC1000100011FC1104110497
:1045C00011FC1104CFA2010002001FF010101FF017
:1045D00010101FF010101FF01010010008844892F6
:1045E000481287F00000B9A4000000007FFC010021
:1045F00001000100010001000100010001000100B3
:104600000100FFFE00000000B3CC08001DFCF10417
:1046100011041104FDFC1000300039FE5420542018
:1046200091FC1020102013FE1000D1A722081108C1
:10463000111000207FFE400280041FE00040018036
:10464000FFFE01000100010005000200BAC50000E4
:104650001FF01010101010101FF00000FF0F0800C6
:1046600010001FF000100010001000A00040B5E77F
:104670000100010001003FF82108210821083FF84E
:104680002108210821083FF8210A0102010200FE49
:10469000D1B900003FFE20002080208020802080B3
:1046A0002FFC2080208020902088208840805FFE82
:1046B0008000D6B5084008400FFC1040104033F889
:1046C000320853F8920813F8120813F81208120867
:1046D0001FFE1000B2C9001000F83F0002001110C8
:1046E0000910082001007FFC0380054009201110FB
:1046F0002108C1060100D1F91104108410881000AE
:10470000FBFE1020302039FC5420502093FE102056
:104710001020102010201020D6D000000000000033
:10472000001800000800000800000800080818F839
:10473000FF1F18081818081818081818081818085B
:1047400018180818F8FF1F080808000800000800DB
:104750000008000008000018000018000018000001
:104760000000BEB0000000000000400006C0FF07CF
:10477000400006C0FF07400006C0FF0740080200D7
:104780003000FEFF3F000000C0FF07C00002C00075
:1047900002C00002C0FF0380100080110160100EF3
:1047A0003010180C1E30001C00000000D4B00000B7
:1047B00000000000080030F8FF1F08001008C010BB
:1047C000083F10080010080010080013C8FF100868
:1047D0002210082210082210082210082112082195
:1047E0001488601648C013280010080010F8FF1F36
:1047F000080010000000B5E70000000000000018ED
:1048000000000800000800000800F0FF0F10080476
:10481000100804100804100804F0FF071008041022
:104820000804100804100804F0FF0710080000082E
:104830001000081000082000183000F01F000000D1
:10484000D7D3000000000000000004F0FF0F0000BC
:104850000600000100C00000280000180000180039
:10486000001830FEFF7F001800001800001800003C
:1048700018000018000018000018000018000018A8
:1048800000001F00000C00000000D6D00000000057
:104890000000000000800000008001000080010096
:1048A0000080010000800100008001001080010CE8
:1048B000F0FFFF0F308001043080010430800104DC
:1048C0003080010430800104308001043080010414
:1048D00030800104F0FFFF073080010430800104C4
:1048E00000800100008001000080010000800100C4
:1048F00000800100008001000080010000800100B4
:10490000008001000080000000000000BEB0000038
:10491000000000000000000000000001800100FF16
:10492000FF01000380010003800100FFFF0100037D
:1049300080010003800100FFFF0100818100000071
:1049400003000000031CFCFFFF3F000040000003C9
:10495000C00100FFFF010003C0000003C00000030E
:10496000C00000FFFF000001410000040100000E34
:10497000710000078101800101076000010E189895
:10498000011C04E0011800C0000000000000D4B0C9
:10499000000000000000000000000008F0FFFF1F02
:1049A0003000000C3000000C3000100C30FE3F0CCA
:1049B0003004000C3000000C3000000C3000000C03
:1049C0003000C00CF0FFFF0D3030060E3030060C0A
:1049D0003010060C3010060C3010060C3018860C07
:1049E0003018860C3008060D300C860D3006EE0FA0
:1049F0003002FC0D3001000CF000000C3000000C07
:104A0000F0FFFF0F3000000C100000040000000059
:104A1000B5E7000000000000000000C0000000C07A
:104A2000010000C0000000C0000000C0000000C085
:104A30000000E0FFFF0360C0000360C0000360C02F
:104A4000000360C0000360C0000360C00003E0FF1B
:104A5000FF0360C0000360C0000360C0000360C0CB
:104A6000000360C00003E0FFFF0360C0000160C0FE
:104A7000000000C0000800C0001000C0001000C00E
:104A8000001800C001380080FF1F00000000000077
:104A90000000D7D30000000000000000000000006C
:104AA00000000003C0FFFF07000080070000C000F7
:104AB000000060000000180000000C0000800300EF
:104AC0000080030000800100008001080080011CBC
:104AD000FCFFFF3F0080010000800100008001001A
:104AE00000800100008001000080010000800100C2
:104AF00000800100008001000080010000800100B2
:104B00000080010000FC010000E000000040000007
:104B100000000000FFFF0000000000000000000097
:104B20000000000000000000000000000000000085
:104B300000000000FFFF0000000000000000000077
:104B40000000000000000000000000000000000065
:104B500000000000FFFF0000000000000000000057
:104B60000000000000000000000000000000000045
:104B70000000000000000000000000000000000035
:104B80000000000000000000000000000000000025
:104B90000000000000000000000000000000000015
:104BA0000000000000000000000000000000000005
:104BB00000000000FFFF00000000000000000000F7
:104BC00000000000000000000000000000000000E5
:104BD00000000000FFFF00000000000000000000D7
:104BE00000000000000000000000000000000000C5
:104BF00000000000FFFF00000000000000000000B7
:104C000000000000000000000000000000000000A4
:104C100000000000FFFF0000000000000000000096
:104C20000000000000000000000000000000000084
:104C300000000000FFFF0000FFFFFFFFFFFF00007C
:104C40000000000000000000000000000000000064
:104C500000000000FFFF0000FFFFFFFFFFFF00005C
:104C60000000000000000000000000000000000044
:104C70000000000000000000FFFFFFFFFFFF00003A
:104C80000000000000000000000000000000000024
:104C90000000000000000000FFFFFFFFFFFF00001A
:104CA0000000000000000000000000000000000004
:104CB00000000000FFFF0000FFFFFFFFFFFF0000FC
:104CC00000000000000000000000000000000000E4
:104CD00000000000FFFF0000FFFFFFFFFFFF0000DC
:104CE00000000000000000000000000000000000C4
:104CF00000000000FFFF00000000000000000000B6
:104D000000000000000000000000000000000000A3
:104D100000000000FFFF0000000000000000000095
:104D20000000000000000000000000000000000083
:104D300000000000FFFF0000FFFFFFFFFFFFFFFF7D
:104D4000FFFFFFFF00000000000000000000000067
:104D500000000000FFFF0000FFFFFFFFFFFFFFFF5D
:104D6000FFFFFFFF00000000000000000000000047
:104D70000000000000000000FFFFFFFFFFFFFFFF3B
:104D8000FFFFFFFF00000000000000000000000027
:104D90000000000000000000FFFFFFFFFFFFFFFF1B
:104DA000FFFFFFFF00000000000000000000000007
:104DB00000000000FFFF0000FFFFFFFFFFFFFFFFFD
:104DC000FFFFFFFF000000000000000000000000E7
:104DD00000000000FFFF0000FFFFFFFFFFFFFFFFDD
:104DE000FFFFFFFF000000000000000000000000C7
:104DF00000000000FFFF00000000000000000000B5
:104E000000000000000000000000000000000000A2
:104E100000000000FFFF0000000000000000000094
:104E20000000000000000000000000000000000082
:104E300000000000FFFF0000FFFFFFFFFFFFFFFF7C
:104E4000FFFFFFFFFFFFFFFFFFFF0000000000006C
:104E500000000000FFFF0000FFFFFFFFFFFFFFFF5C
:104E6000FFFFFFFFFFFFFFFFFFFF0000000000004C
:104E70000000000000000000FFFFFFFFFFFFFFFF3A
:104E8000FFFFFFFFFFFFFFFFFFFF0000000000002C
:104E90000000000000000000FFFFFFFFFFFFFFFF1A
:104EA000FFFFFFFFFFFFFFFFFFFF0000000000000C
:104EB00000000000FFFF0000FFFFFFFFFFFFFFFFFC
:104EC000FFFFFFFFFFFFFFFFFFFF000000000000EC
:104ED00000000000FFFF0000FFFFFFFFFFFFFFFFDC
:104EE000FFFFFFFFFFFFFFFFFFFF000000000000CC
:104EF00000000000FFFF00000000000000000000B4
:104F000000000000000000000000000000000000A1
:104F10000000000000000000000000000102030487
:104F20000607080900000000010203044C4F0008B6
:104F300000000020180000008E260008644F0008C2
:104F400018000020880400009E26000800000000D1
:104F50000000000001000000100000000000000040
:044F60000024F40035
:040000050800018965
:00000001FF
